:020000040000fa
:10000000f0ff032039050000150800001508000066
:100010001508000015080000150800000000000089
:1000200000000000000000000000000015080000b3
:100030001508000000000000150800001508000069
:10004000150800001508000015080000150800003c
:10005000150800001508000015080000150800002c
:10006000150800001508000015080000150800001c
:10007000150800001508000015080000150800000c
:1000800015080000150800001508000015080000fc
:1000900015080000150800001508000015080000ec
:1000a00015080000150800001508000015080000dc
:1000b00015080000150800001508000015080000cc
:1000c00015080000150800001508000015080000bc
:1000d00015080000150800001508000015080000ac
:1000e00015080000150800000000000000000000d6
:1000f00000000000150800001508000015080000a9
:10010000150800001508000015080000150800007b
:10011000150800001508000015080000150800006b
:10012000150800001508000015080000150800005b
:10013000150800001508000015080000150800004b
:10014000150800001508000015080000150800003b
:10015000150800001508000015080000150800002b
:10016000150800001508000015080000150800001b
:10017000150800001508000015080000150800000b
:1001800015080000150800001508000015080000fb
:1001900015080000150800001508000015080000eb
:1001a00015080000150800001508000015080000db
:1001b00015080000150800001508000015080000cb
:1001c00015080000150800001508000015080000bb
:1001d00015080000150800001508000015080000ab
:1001e000150800001508000015080000150800009b
:1001f0001508000015080000110700001508000090
:10020000150800001508000015080000150800007a
:10021000150800001508000015080000150800006a
:10022000150800001508000015080000150800005a
:10023000150800001508000015080000150800004a
:10024000150800001508000015080000150800003a
:10025000150800001508000015080000150800002a
:04026000150800007d
:020000040000fa
:10026400f8b500bff8bc08bc9e467047d107000033
:10027400f8b500bff8bc08bc9e467047ad07000047
:020000040000fa
:1002840080b400af134b1b7fdbb2124a43f002036e
:10029400dbb2137700bf0f4b93f82c30dbb203f0c3
:1002a4000203002bf7d100bf0a4b1b6903f48073d0
:1002b400002bf9d0084b094a1a6200bf064b5b6851
:1002c40003f00403002bf9d100bfbd465df8047ba5
:1002d400704700bf00100040001c004006090100e8
:1002e40080b400af1e4b0e229a8200bf1c4bdb6809
:1002f40003f00103002bf9d01a4b4322c3f88020ea
:10030400184b194ada6200bf164b5b6803f02003ee
:10031400002bf9d1154b164a9a6200bf134b93f880
:100324002c30dbb203f01003002bf7d10f4b01226a
:1003340083f8202000bf0d4b93f82c30dbb203f080
:100344000403002bf7d100bf084b1b6903f480732f
:10035400002bf9d000bfbd465df8047b704700bf99
:1003640000140040001c0040050101000010004082
:10037400b905011480b400af1a4b4ff48072c3f86e
:100384009820184b4ff48072c3f88820154b4ff413
:100394008042c3f88820134b4ff00042c3f88420f6
:1003a400104b062283f8df200e4b4ff00042c3f8b7
:1003b40098200c4b4ff6ff72c3f8a420094b0a4a4d
:1003c400c3f8a820074b4ff48022c3f81821054b2b
:1003d4004ff48022c3f8082100bfbd465df8047bba
:1003e400704700bf008000410e00015c80b400af84
:1003f400184b9b69174a43f480439361164b402280
:10040400c3f8e820154b4ff4c0621a60134b012265
:100414001a73124b40f253729a8300bf0f4b1b693d
:1004240003f04003002bf9d10c4b01225a720b4b01
:100434001b680a4a43f00203136000bf074b1b69a1
:1004440003f00203002bf9d100bfbd465df8047b25
:10045400704700bf00080040001c004000c001417c
:1004640080b500affff70cfffff73afffff782fffd
:10047400fff7bcff00bf80bd80b400af074b4ff453
:100484008072c3f89c20054b4ff48022c3f81c21d2
:1004940000bfbd465df8047b704700bf008000418b
:1004a40080b582b000af7860194bd3f8a030002b30
:1004b4001cdb184b1b889bb2013b9bb2154a1946a7
:1004c4001180002b1fd1134b32221a80124b1b7840
:1004d400dbb20133dbb2104a19461170012b12d979
:1004e4000d4b00221a707b6898470ce0094b1b885f
:1004f4009bb201339bb2074a19461180632b02d980
:10050400044b32221a8000bf0837bd4680bd00bfad
:1005140000800041800000208200002080b500aff0
:10052400fff79eff00f00af9014b32221a80fee722
:040534008000002023
:020000040000fa
:100538001b4b03b198471b4b03b19847eff310834c
:10054800b3fa83f35b09019372b6bff35f8f164b5f
:1005580000221a700199154a136843f47003136056
:10056800bff34f8fbff36f8f29b10f4b01221a7062
:10057800bff35f8f62b600f035f900f023f80c4b3b
:1005880023f07f030b4a93600b4b98470b4b03b147
:1005980098470b4b03b19847fff7befffee700bf34
:1005a80000000000000000008300002088ed00e04b
:1005b8000000000000ed00e051070000000000000e
:0405c800000000002f
:020000040000fa
:1005cc001e4b1f4a9342f0b438bf002103d203f8ec
:1005dc00011b9342fbd11b4ad2e9000150ea0103f3
:1005ec004ff0000610d09468034602f10c076cb96a
:1005fc0021b1014403f8016b9942fbd13a46d2e98f
:10060c00000150ea0103eed1f0bc704759b101f181
:10061c000c030c38801a1a443b461c1813f8015b67
:10062c0025709342f9d111f0030318bf012303eb9a
:10063c00910107eb81073a46e1e700bf000000207b
:08064c0000000020540600002c
:020000040000fa
:100654006c00002004000000010000000000000005
:10066400500000201c00000000000000800000205a
:1006740003000000000000007000002004000000df
:10068400010000007d040000830000200100000040
:1006940000000000740000200400000000000000be
:1006a400000000205000000000000000780000203e
:1006b40004000000000000007c0000200400000092
:1006c4000100000000000000000000000000000025
:020000040000fa
:1006d40080b483b000af0346fb80b7f90630002b2b
:1006e4000bdbfb8803f01f020749b7f906305b09ef
:1006f400012000fa02f241f8232000bf0c37bd4666
:100704005df8047b704700bf00e100e080b500aff6
:10071400084b9b7adbb203f00103002b07d0054b97
:1007240001229a72044b1b681846fff7b9fe00bffa
:1007340080bd00bf00c001417000002080b500af43
:0c0744006e20fff7c5ff00bf80bd00bfa6
:020000040000fa
:100750000e4a38b5002313600d4a0e4c13600e4a42
:100760000e4d13600e4a13600e4a13600e4a536218
:1007700013610123936000f04ef800f04cf8ac4296
:1007800000d338bd54f8043b9847f8e778000020c0
:100790000c0000207002000008000020740200001d
:0c07a000000000200400002010000020d9
:020000040000fa
:1007ac0010b5054c227832b9044b13b10448aff3a1
:1007bc0000800123237010bd5000002000000000b9
:1007cc000000000008b5034b1bb103490348aff30d
:1007dc00008008bd00000000540000200000000054
:1007ec00084b9a6822f001029a60db6813f0010f43
:1007fc0006d1044b20225a609a6842f001029a609a
:08080c00704700bf00600041cd
:020000040000fa
:02081400fee7fd
:020000040000fa
:02081600704729
:020000040000fa
:0200000400807a
:044000003912003c35
:020000040000fa
:0200000400807a
:044004008000ec2e1e
:020000040000fa
:0200000400807a
:04400800ffffffffb8
:00000001FF
