:020000040000fa
:10000000f0ff0320850200004505000045050000c3
:100010004505000045050000450500000000000002
:100020000000000000000000000000004505000086
:1000300045050000000000004505000045050000e2
:100040004505000045050000450500004505000088
:100050004505000045050000450500004505000078
:100060004505000045050000450500004505000068
:100070004505000045050000450500004505000058
:100080004505000045050000450500004505000048
:100090004505000045050000450500004505000038
:1000a0004505000045050000450500004505000028
:1000b0004505000045050000450500004505000018
:1000c0004505000045050000450500004505000008
:1000d00045050000450500004505000045050000f8
:1000e000450500004505000000000000000000007c
:1000f0000000000045050000450500004505000022
:1001000045050000450500004505000045050000c7
:1001100045050000450500004505000045050000b7
:1001200045050000450500004505000045050000a7
:100130004505000045050000450500004505000097
:100140004505000045050000450500004505000087
:100150004505000045050000450500004505000077
:100160004505000045050000450500004505000067
:100170004505000045050000450500004505000057
:100180004505000045050000450500004505000047
:100190004505000045050000450500004505000037
:1001a0004505000045050000450500004505000027
:1001b0004505000045050000450500004505000017
:1001c0004505000045050000450500004505000007
:1001d00045050000450500004505000045050000f7
:1001e00045050000450500004505000045050000e7
:1001f00045050000450500004505000045050000d7
:1002000045050000450500004505000045050000c6
:1002100045050000450500004505000045050000b6
:1002200045050000450500004505000045050000a6
:100230004505000045050000450500004505000096
:100240004505000045050000450500004505000086
:100250004505000045050000450500004505000076
:040260004505000050
:020000040000fa
:10026400f8b500bff8bc08bc9e4670470105000005
:10027400f8b500bff8bc08bc9e467047dd0400001a
:020000040000fa
:100284001b4b03b198471b4b03b19847eff3108303
:10029400b3fa83f35b09019372b6bff35f8f164b16
:1002a40000221a700199154a136843f4700313600d
:1002b400bff34f8fbff36f8f29b10f4b01221a7019
:1002c400bff35f8f62b600f027f900f023f80c4b00
:1002d40023f07f030b4a93600b4b98470b4b03b1fe
:1002e40098470b4b03b1984700f0bef8fee700bff8
:1002f40000000000000000008800002088ed00e0fd
:100304000000000000ed00e0810400000000000097
:0403140000000000e5
:020000040000fa
:100318001e4b1f4a9342f0b438bf002103d203f8a2
:10032800011b9342fbd11b4ad2e9000150ea0103a9
:100338004ff0000610d09468034602f10c076cb920
:1003480021b1014403f8016b9942fbd13a46d2e945
:10035800000150ea0103eed1f0bc704759b101f138
:100368000c030c38801a1a443b461c1813f8015b1e
:1003780025709342f9d111f0030318bf012303eb51
:10038800910107eb81073a46e1e700bf0000002032
:0803980000000020a00300009a
:020000040000fa
:1003a00074000020040000000100000000000000b4
:1003b000500000201c000000000000007800002019
:1003c0000400000001000000210400006c00002077
:1003d000080000000000000088000020010000006c
:1003e000000000007c00002004000000000000006d
:1003f00000000020500000000000000080000020ed
:100400000400000000000000840000200400000040
:1004100001000000000000000000000000000000db
:020000040000fa
:1004200080b400af044b1b680133034a136000bf64
:10043000bd465df8047b70477000002080b582b037
:1004400000af7860084b1b78dbb25a1cd1b2064a69
:100450001170052b04d1044b00221a707b68984759
:1004600000bf0837bd4680bd6c00002080b500afde
:10047000024b1b681846fff7e1fff9e77800002000
:020000040000fa
:100480000e4a38b5002313600d4a0e4c13600e4a15
:100490000e4d13600e4a13600e4a13600e4a5362eb
:1004a00013610123936000f04ef800f04cf8ac4269
:1004b00000d338bd54f8043b9847f8e7800000208b
:1004c0000c000020700200000800002074020000f0
:0c04d000000000200400002010000020ac
:020000040000fa
:1004dc0010b5054c227832b9044b13b10448aff374
:1004ec0000800123237010bd50000020000000008c
:1004fc000000000008b5034b1bb103490348aff3e0
:10050c00008008bd00000000540000200000000026
:10051c00084b9a6822f001029a60db6813f0010f15
:10052c0006d1044b20225a609a6842f001029a606c
:08053c00704700bf00600041a0
:020000040000fa
:02054400fee7d0
:020000040000fa
:020546007047fc
:00000001FF
