:020000040000fa
:10000000f0ff03202d0c00002b1000005711000002
:100010007b140000db140000af150000000000009e
:10002000000000000000000000000000b715000004
:100030001712000000000000b7150000b7150000ff
:10004000b7150000b7150000b7150000b715000080
:10005000b7150000b7150000b7150000b715000070
:10006000b7150000b7150000b7150000b715000060
:10007000b7150000b7150000b7150000b715000050
:10008000b7150000b7150000b7150000b715000040
:10009000b7150000b7150000b7150000b715000030
:1000a000b7150000b7150000b7150000b715000020
:1000b000b7150000b7150000b7150000b715000010
:1000c000b7150000b7150000b7150000b715000000
:1000d000b7150000b7150000b7150000b7150000f0
:1000e000b7150000b7150000000000000000000078
:1000f00000000000b7150000b7150000b71500009c
:10010000b7150000b7150000b7150000b7150000bf
:10011000b7150000b7150000b7150000b7150000af
:10012000b7150000b7150000b7150000b71500009f
:10013000b7150000b7150000b7150000b71500008f
:10014000b7150000b7150000b7150000b71500007f
:10015000b7150000b7150000000000000000000007
:10016000000000000000000000000000000000008f
:100170000000000000000000b7150000b7150000e7
:10018000b7150000b7150000b7150000b71500003f
:1001900000000000b7150000b7150000b7150000fb
:1001a000b7150000b7150000b7150000b71500001f
:1001b000b7150000b7150000b7150000b71500000f
:1001c000b7150000b7150000b7150000b7150000ff
:1001d000b7150000b7150000b7150000b7150000ef
:1001e000b7150000b7150000b7150000ed120000ac
:1001f000b7150000b7150000b7150000b7150000cf
:10020000b71500000000000000000000b715000056
:10021000b7150000b7150000b7150000b7150000ae
:10022000b7150000b7150000b7150000b71500009e
:10023000b7150000b7150000b7150000b71500008e
:10024000b7150000b7150000b7150000b71500007e
:10025000b7150000b7150000b7150000b71500006e
:020000040000fa
:10026000f8b500bff8bc08bc9e467047c11100003d
:10027000f8b500bff8bc08bc9e4670479d11000051
:020000040000fa
:08028000fc0200000100000077
:020000040000fa
:100288002de9f04fadb00027dff8e4a20391064650
:100298001546b8464ff0ff3903990b78002b00f04c
:1002a800f9800cabcde907890a938023cdf8248027
:1002b8000b9300240b5d0bb1252b26d134b12246bc
:1002c800304600f087ff039b23440393039b1a786f
:1002d800252a40f0d78003f1010bcdf80cb0039824
:1002e80003782b2b1ad025d8202b1bd0232b1dd0dd
:1002f8002a2b27d000f008ff0990039b1a78303a80
:10030800092a2ed801330393f7e70134d2e7079b74
:1003180043f00103013007930390e0e7079b43f0a4
:100328000403f7e7079b43f00803f3e7079b43f051
:100338001003efe72d2bead0302bd9d1079b43f0e0
:100348000203e7e72b681a1d1b682a600130002b9f
:100358000390099305da079a5b4282f0010207923b
:100368000993079bda0744bf23f002030793039b13
:100378001a782e2a0dd1581ccdf8208003905a786f
:100388002a2a25d1023303932b681a1d1b682a6079
:10039800089303a800f03cff039b0190187801f034
:1003a800ddf86928019979d032dc632800f0c6802d
:1003b80019dc252800f0d080612853d025238df83a
:1003c8001030cdf80cb0cdf81c80cde90898c0e00d
:1003d80000f09afe0890039b1a78303a092ad8d878
:1003e80001330393f7e7642858d06728e6dc2a46e8
:1003f80004a800f0a3ff002800f09c80039b5a1c6f
:1004080003921b7804aa07a9304601f0caf838e01d
:10041800702873d015dc6e2800f087806f28cdd146
:100428002b46002204a800f05dfb002800f0828023
:10043800039b04aa013307a93046039300f033fd58
:100448001fe075283ad0782848d07328b6d180297b
:1004580070d1039b2a6801330393131d2b60126824
:1004680000235be02a4604a800f068ff002861d05a
:10047800039b5a1c03921b7804aa07a9304601f073
:1004880090f804443c44a7426edd384b4f221a6072
:100498004ff0ff3738462db0bde8f08f2b460122cc
:1004a80004a800f01ffb002844d0039b04aa0133d2
:1004b80007a93046039300f0c1fae2e72b46002271
:1004c80004a800f00ffb002834d0039b04aa0133d2
:1004d80007a93046039300f079fdd2e72b460022a6
:1004e80004a800f0fffa28b3039b5a1c03921b7858
:1004f80004aa07a9304600f09bf9c2e72b46002260
:10050800f02104a800f0eefaa0b1039b0133039395
:10051800dde90423134306d10023524607a93046d8
:1005280000f028fdade77823e2e72b463a1904a846
:1005380000f03ffc039b01330393a3e78029f9d123
:10054800039b013303932b681a1d1b682a608df8df
:100558001030012304aae1e78029ebd1039b8df831
:10056800100001330393f4e7274695e6a400002022
:040578005814000013
:020000040000fa
:10057c002de9f04f099f154604468e461e46002b6a
:10058c0040f0cc808a42b2fa82fc4cd9bcf1000f0c
:10059c000bd0ccf1200801fa0cfe20fa08f802fa74
:1005ac000cf548ea0e0e00fa0cf44fea15491ffa46
:1005bc0085f8befbf9fa210c09fb1ae30afb08fbd0
:1005cc0041ea03439b452ad9eb180af1ff3004d2c8
:1005dc009b4502d9aaf102002b44a3eb0b03a4b256
:1005ec00b3fbf9f209fb123302fb08f844ea0344ab
:1005fc00a04516d92c1902f1ff3303d2a04501d91d
:10060c00931e2c44a4eb080443ea004027b124fabf
:10061c000cf400233c607b603146bde8f08f504603
:10062c00dbe71346eee702b9ffdebcf1000f2ed17b
:10063c008b1a01264fea154eaab2b3fbfef8210c19
:10064c000efb183308fb02f941ea0343994561d9c3
:10065c00eb1808f1ff3004d2994502d9a8f1020039
:10066c002b44a3eb0903a4b2b3fbfef10efb113335
:10067c004a4344ea0344a2424ed92c1901f1ff33f8
:10068c0003d2a24201d98b1e2c44a41abce7ccf194
:10069c00200e02fa0cf521fa0ef901fa0cf320faed
:1006ac000efe4eea03034fea154800fa0cf4b9fbb0
:1006bc00f8f11ffa85fe08fb1192180c01fb0ef6df
:1006cc0040ea0242964221d9aa1801f1ff3003d226
:1006dc00964201d9881e2a44921b9bb2b2fbf8f9b0
:1006ec0008fb192209fb0efe43ea02439e450fd973
:1006fc00eb1809f1ff3604d29e4502d9a9f1020686
:10070c002b44a3eb0e0346ea004693e70846e3e7c7
:10071c004e46f6e74046a4e70b46b6e78b4206d9b1
:10072c00002f7ed00026c7e90001304674e7b3faeb
:10073c0083fcbcf1000f0fd18b4201d3824209d84c
:10074c00841a61eb030e0120002f6dd0c7e9004e17
:10075c00002661e76046f7e7ccf1200e03fa0cf3b4
:10076c0022fa0ef521fa0ef41d4301fa0cf320facd
:10077c000ef10b434fea154a00fa0cf6b4fbfaf9ea
:10078c001ffa85f80afb19401c0c09fb08f144ea16
:10079c000044a14202fa0cf23fd92c1909f1ff30a6
:1007ac0004d2a14202d9a9f102002c44641a9bb2d2
:1007bc00b4fbfaf90afb194409fb08f843ea0441b3
:1007cc0088452cd9691809f1ff3304d2884502d920
:1007dc00a9f10203294443ea0040a1eb0801a0fb64
:1007ec0002894945c2464c4602d306d1464504d23d
:1007fc00b8eb020a69eb05040138afb1b6eb0a039a
:10080c0061eb040606fa0efe23fa0cf34eea030320
:10081c0026fa0cf6c7e900369ae74846c6e74b4677
:0c082c00d9e73e463846f7e63e46f5e6c2
:020000040000fa
:100838002de9f04f89461946d9e90153d9f80080c6
:10084800d9f80ca0002d8bb0a8bf28f00208834669
:10085800b8bf012518f010009646d2e9006702904b
:1008680051d056ea07024ed0981e18f00804039497
:10087800d9f8104018bf00f1ff30401b013c4ff081
:10088800000c049008f0020005900af804c0a1f1d9
:1008980041000690012c0add56ea070235d1002de9
:1008a80033dc049a5019002801dd059a6abb029ac4
:1008b80062b1dee9006756ea070207d00aeb0402d4
:1008c800023c02f8011c30220af80420039a1ab1eb
:1008d800013c20220af80420d9f81020cdf8008025
:1008e800013a121b0aeb0401584600f023fadbf820
:1008f8000430db0504d5d9f804309842b8bf18464f
:100908000bb0bde8f08f1846afe706f00f00069a67
:100918000928d4bf30305730192a04f1ff340ed8d3
:1009280040f0200cacf1610cbcf1190f07d8cde9ef
:1009380008e1079300f019fedde908e1079b0af8d2
:100948000400300940ea07704fea171c013d0646cb
:0409580067469fe768
:020000040000fa
:10095c00324b00221a7403f50063314a9a621a462c
:10096c00536813f0100ffbd12e4b4222c3f8842096
:10097c001a46d2f8843013f0400ffad02a4b0022da
:10098c009a6377225a631a46d36b13f0040ffbd188
:10099c00254b022283f830201a46d36b13f0020f3a
:1009ac00fbd1214a136c03f00303032bfad11f4b29
:1009bc0001225a711a46d37813f0010ffbd0194b50
:1009cc001b4a1a621a46536813f0040ffbd1154bdd
:1009dc00184a5a621a46536813f0080ffbd1114b90
:1009ec004122c3f8a4201a46d2f8a43013f0400fc9
:1009fc00fad00c4b4122c3f80c211a46d2f80c3118
:100a0c0013f0400ffad0094b6ff07f421a6144f299
:100a1c00ff725a6102221a62704700bf0014004034
:100a2c0006013000001c004000100040000800408f
:080a3c0007010100070102009f
:020000040000fa
:100a44002de9f041d2e900230c4686b007465fea5f
:100a5400d37820684968a5680590e66841d0524279
:100a640063eb4303002908db20f002000590b8f192
:100a7400000f02d1059948072ad5691e05a80290de
:100a84000a20cde90010204600f0d3f9b8f1000f98
:100a940002d1059b59071fd5b8f1000f00f1ff30b3
:100aa40014bf2d232b2333542269059b0093013a51
:100ab4002b46121a3118384600f03ef97b68db05e4
:100ac40003d563689842b8bf184606b0bde8f08104
:100ad4000807d2d42946d1e71a07e5d501382023df
:080ae400e1e70029c0dac5e7d3
:020000040000fa
:100aec00882930b534d012dc81293fd003dc802931
:100afc003cd0002030bd82290ed08429f9d11c684d
:100b0c0054f8041b1c60f2b10ab2d3171de0a029e3
:100b1c0027d00cdc9029ecd11968073121f00701a2
:100b2c00f1e802451960c0e900450120e2e7c0295f
:100b3c0001d0f029ddd11a68111d1960136803600a
:100b4c0000234360f1e78ab20023c0e90023ece7fd
:100b5c001c6854f8041b1c600ab14ab2d5e7cab22f
:100b6c00f2e71a68111d19601268cee719680c1d9e
:100b7c001c600ab10a68c8e70b68c0e90032d4e708
:020000040000fa
:100b8c00700000201c000000000000008c00002001
:100b9c000800000000000000a80000200200000077
:100bac00000000009c000020040000000000000079
:100bbc000000002050000000000000005000002049
:100bcc0020000000010000000100000003000000f4
:100bdc000000000000000000000000000000000009
:100bec000000000094000020940000200800000089
:100bfc0000000000a0000020040000000000000025
:100c0c00a400002004000000000000000000000010
:100c1c000000000022222222222222222222222230
:020000040000fa
:100c2c0008b5194b9847194b9847eff3108172b6da
:100c3c00174ad2f8883043f47003c2f88830bff3f7
:100c4c004f8fbff36f8f01b962b6124a936823f0ce
:100c5c00010393601346da6812f0010ffbd10d4bc0
:100c6c0024225a6001229a6000f01ef80a4b23f0ed
:100c7c007f03074a9360094b9847094b9847094be8
:100c8c00984700f0cdf9fee7b5150000b51500004a
:100c9c0000ed00e00060004100000000210f0000aa
:080cac00b5150000b5150000ac
:020000040000fa
:100cb4001e4b1f4a9342f0b438bf002103d203f8fd
:100cc400011b9342fbd11b4ad2e9000150ea010304
:100cd4004ff0000610d09468034602f10c076cb97b
:100ce40021b1014403f8016b9942fbd13a46d2e9a0
:100cf400000150ea0103eed1f0bc704759b101f193
:100d04000c030c38801a1a443b461c1813f8015b78
:100d140025709342f9d111f0030318bf012303ebab
:100d2400910107eb81073a46e1e700bf000000208c
:080d3400000000208c0b000000
:020000040000fa
:100d3c002de9ff471d460c9b13f001080746894619
:100d4c00144624d1aa4222da2e1b102e32464ff022
:100d5c00200128bf10226846b24600f0e5fb0f2e9a
:100d6c001edc4fea1a136ff00f0202fb03a2694656
:100d7c00384600f02dfab8f1000f04d1224649464e
:100d8c00384600f025fa284604b0bde8f087224624
:100d9c004946384600f01cfaac42d5db2546f2e752
:0e0dac0010226946384600f013fa103ed7e7d1
:020000040000fa
:100dba00842910b523d00cdc812903d0822913d0d1
:100dca0080290bd119680c1d1c600b6803601a601e
:100dda0013e0902921d003dc882917d0002010bd08
:100dea00a029efd0c029ece719680c1d1c600b681c
:100dfa000360d1171046c3e900010120efe7196823
:100e0a000c1d1c600b6803601a80f6e719680c1d3c
:100e1a001c600b6803601a70efe719680c1d1c60f0
:0c0e2a0009680160d317c1e90023e6e766
:020000040000fa
:100e36002de9f84f04460c9f6668d4f80cb0246977
:100e460010463a68013c002502f0020a0b9a0bf89c
:100e56000450002e1946b8bf0126012390464feada
:100e6600e279002c03dcd3b12046bde8f88f50eac6
:100e7600010209d1721b002a06dc0a9a521b002abb
:100e8600f1ddbaf1000feed042464b4600f013fa00
:100e9600013c134630320bf804200135e1e73b688c
:080ea60023f010033b60dfe7bd
:020000040000fa
:100eae00f0b50c4649682368a768e56887b0002945
:100ebe000593a4bf23f00203059305ab0293082309
:100ece00cde900730646d2e900232046fff7acffba
:100ede00059bd90642bf00f1ff3030232b54059bf2
:100eee001a0742bf00f1ff3020232b542269059bc5
:100efe000093013a3b46121a29183046fff717ffa6
:100f0e007368db0503d563689842b8bf184607b00f
:020f1e00f0bd24
:020000040000fa
:100f20000e4a38b5002313600d4a0e4c13600e4a6a
:100f30000e4d13600e4a13600e4a13600e4a536240
:100f400013610123936000f005fb00f036fbac4217
:100f500000d338bd54f8043b9847f8e7a0000020c0
:100f60000c0000206c02000008000020700200004d
:0c0f700000000020040000201000002001
:020000040000fa
:100f7c002de9ff41134dd1f80080af88adf80c700e
:100f8c0006462868029002aca8798df80e00002a5b
:100f9c0018bf1446d1e901571a461bb9204600f078
:100fac00cbfa0246002d02dbaa4228bf2a46cdf816
:100fbc0000803b4621463046fff7bafe04b0bde840
:080fcc00f08100bf9c1500003c
:020000040000fa
:100fd400f0b50c4649682368a668e76887b000291d
:100fe4000593a4bf23f00203059305ab02930a23e0
:100ff400cde900630546d2e900232046fff719ff37
:101004002269059b0093013a3346121a391828467f
:10101400fff792fe6b68db0503d563689842b8bf9f
:06102400184607b0f0bd04
:020000040000fa
:02102a00fee7df
:020000040000fa
:10102c002de9f041002000f0e8f900f021fa002150
:10103c000c4800f09ffa00f067fa0021dff82c80d2
:10104c004ff48047084e4ff4fa75c8f81c704c1cce
:10105c00e4b2304600f0aef9284600f039fa2146e9
:10106c00f3e700bfad140000241500000080004120
:020000040000fa
:10107c00104bda6822f4e0621204120c42f0bf62e8
:10108c0042f40032da60bff35f8f62b60a4ae021a5
:10109c0082f86b134ff40061d1605a6a42f48022db
:1010ac005a625a6942f010025a615a6a42f400328a
:0c10bc005a62704700ed00e000e100e027
:020000040000fa
:1010c8000f4b01221a601a46136913f0010ffbd166
:1010d8000b4b10221a6003221a734ef65f229a8372
:1010e80033229a72074a0021116001225a724ff482
:1010f8008072da801a461369002bfcd1704700bf52
:08110800003800408c000020bb
:020000040000fa
:1011100010b50278202a034600f10100f9d0a2f1af
:1011200009010429f5d92b2a07d02d2a11d1012133
:101130000133013b00200a2403e00021f8e760436b
:10114000801a13f8012f303a092af8d901b9404220
:0611500010bd0021ede7d7
:020000040000fa
:02115600fee7b2
:020000040000fa
:10115800d0b110b40446c9b1084421460c4a6442cf
:10116800137e13f0010ffbd0536803f00703012b24
:1011780014bf0b7834f81130936201318142efd1fa
:1011880001205df8044b7047002070470120f8e704
:04119800000400430c
:020000040000fa
:10119c0010b5054c227832b9044b13b10448aff3a7
:1011ac0000800123237010bd70000020000000009f
:1011bc000000000008b5034b1bb103490348aff313
:1011cc00008008bd0000000074000020000000003a
:020000040000fa
:1011dc0038b5436813f4807f0446154610d0036974
:1011ec0040699a4228bf1d462a4600f065f962699b
:1011fc005319636123695b1b23610023535538bd6d
:0a120c00db06fcd400f0c8f9f9e796
:020000040000fa
:02121600fee7f1
:020000040000fa
:1012180030b50c4a002312f8134024b902eb4303fb
:101228005b78184630bd01680d78a54209bf02eb0e
:10123800430301335b78013114bfdbb201600a2b31
:08124800e9d9eee742140000b1
:020000040000fa
:1012500007b54a68c0b2d2050b468df8070006d51f
:101260004a69511c5961107003b05df804fb0122fa
:101270000df10701184600f095f910b19df807002f
:08128000f2e74ff0ff30efe749
:020000040000fa
:101288000a4b0b4a1a604ff622029a814ff44032f9
:101298005a601a46d369002bfcd1044a136843f0fc
:1012a80002031360d369002bfcd17047000400438c
:0412b80004011040dd
:020000040000fa
:1012bc0053b94ab9002908bf00281cbf4ff0ff31b1
:1012cc004ff0ff3000f06eb9adf1080c6de904ceb3
:1012dc00fff74ef9ddf804e0dde9022304b07047b6
:020000040000fa
:1012ec0008b5084b5b7a63b1064a937a3321917245
:1012fc0003f0ff002bb1044b1b6813b1024a516879
:0c130c00984708bd003800408c0000200d
:020000040000fa
:10131800094b4ff480421a601a61002283f84e206c
:1013280083f83720012283f8d02083f8d1202222a5
:0c13380083f8b820704700bf008000411f
:020000040000fa
:10134400802910db812901dd83290cd1136807333f
:1013540023f0070303f108011160d3e90023c0e976
:0a13640000230120704700207047ad
:020000040000fa
:10136e0070b5002902fb01f614460d4618bf14464f
:10137e0001463246184608bf002400f00cf986429a
:0a138e0018bfb0fbf5f4204670bd57
:020000040000fa
:1013980010b5084c2368196800f020f8002807db0e
:1013a80023680a20196800f0f1f8c00f404210bd08
:0813b8000120fbe76c0000209e
:020000040000fa
:1013c0000fb407b5064b04aa1b6852f8041b186833
:1013d000019200f044f803b05df804eb04b07047ec
:0413e0006c0000207d
:020000040000fa
:1013e40070b50e46054600f0abf833460446024697
:1013f40001212846fff7b9ff001b18bf4ff0ff304b
:0214040070bdb9
:020000040000fa
:1014060008b500f07cf8fff784fffff7a4fa00f0b8
:10141600d0f8fff736fffff754fefff72cfe08bda6
:020000040000fa
:1014260038b50d461446012801d0204638bd214660
:0c1436002846fff78efe0028f9d0f6e7ec
:020000040000fa
:1014420068076c094c836a9074a07ac0008068882f
:0c14520000846c820081286e696c290007
:020000040000fa
:10145e0013b50446019201aafef70fff636813f05d
:0c146e00100f18bf4ff0ff3002b010bd8f
:020000040000fa
:02147a00fee78b
:020000040000fa
:10147c00044a136843f002031360136913f0020f5c
:08148c00fbd17047003800405d
:020000040000fa
:101494000a53414d45353120437572696f73697440
:0814a40079204e616e6f0a0011
:020000040000fa
:1014ac00044b1b889bb223b1024a1388013b9bb2ad
:0814bc0013807047a800002016
:020000040000fa
:1014c40010b5431e0a44914200d110bd11f8014bde
:0614d40003f8014ff7e7e9
:020000040000fa
:0214da00fee72b
:020000040000fa
:1014dc00034b18801a4613889bb2002bfbd1704724
:0414ec00a800002034
:020000040000fa
:1014f00008b500f04bf8024b1860586008bd00bffb
:041500009400002033
:020000040000fa
:10150400024b40f204521a80704700bf0040004171
:020000040000fa
:1015140008b50248fff73eff08bd00bf9414000061
:020000040000fa
:1015240048656c6c6f2025642120200d000000bfed
:020000040000fa
:1015340002440346934200d1704703f8011bf9e7c4
:020000040000fa
:1015440003461a46013311780029fad1101a70475c
:020000040000fa
:1015540008b5fff7cbff00f02ff800f02df808bd19
:020000040000fa
:0e156400a0f14103192b98bf40f02000704702
:020000040000fa
:0e157200a0f16103192b98bf00f05f007047d5
:020000040000fa
:0c158000014b1860596070478c0000207f
:020000040000fa
:08158c000048704750000020e8
:020000040000fa
:0815940008b5fff75bfe08bd7e
:020000040000fa
:07159c00286e756c6c29003c
:020000040000fa
:0615a4000068fff73ebfe6
:020000040000fa
:0415aa000020704766
:020000040000fa
:0215ae00fee756
:020000040000fa
:0415b000704700bfc1
:020000040000fa
:0215b40070477e
:020000040000fa
:0215b600fee74e
:020000040000fa
:0215b80070477a
:020000040000fa
:0415ba0070477047bf
:020000040000fa
:0200000400807a
:044000003912003c35
:020000040000fa
:0200000400807a
:044004008000a82a66
:020000040000fa
:0200000400807a
:04400800ffffffffb8
:00000001FF
