:020000040000fa
:10000000f0ff0320f90300001107000011070000b2
:100010001107000011070000110700000000000098
:1000200000000000000000000000000011070000b8
:100030001107000000000000110700001107000078
:100040001107000011070000110700001107000050
:100050001107000011070000110700001107000040
:100060001107000011070000110700001107000030
:100070001107000011070000110700001107000020
:100080001107000011070000110700001107000010
:100090001107000011070000110700001107000000
:1000a00011070000110700001107000011070000f0
:1000b00011070000110700001107000011070000e0
:1000c00011070000110700001107000011070000d0
:1000d00011070000110700001107000011070000c0
:1000e00011070000110700000000000000000000e0
:1000f00000000000110700001107000011070000b8
:10010000110700001107000011070000110700008f
:10011000110700001107000011070000110700007f
:10012000110700001107000011070000110700006f
:10013000110700001107000011070000110700005f
:10014000110700001107000011070000110700004f
:10015000110700001107000011070000110700003f
:10016000110700001107000011070000110700002f
:10017000110700001107000011070000110700001f
:10018000110700001107000011070000110700000f
:1001900011070000110700001107000011070000ff
:1001a00011070000110700001107000011070000ef
:1001b00011070000110700001107000011070000df
:1001c00011070000110700001107000011070000cf
:1001d00011070000110700001107000011070000bf
:1001e00011070000110700001107000011070000af
:1001f000110700001107000011070000110700009f
:10020000110700001107000011070000110700008e
:10021000110700001107000011070000110700007e
:10022000110700001107000011070000110700006e
:10023000110700001107000011070000110700005e
:10024000110700001107000011070000110700004e
:10025000110700001107000011070000110700003e
:040260001107000082
:020000040000fa
:10026400f8b500bff8bc08bc9e467047cd06000038
:10027400f8b500bff8bc08bc9e467047a90600004c
:020000040000fa
:1002840080b400af134b1b7fdbb2124a43f002036e
:10029400dbb2137700bf0f4b93f82c30dbb203f0c3
:1002a4000203002bf7d100bf0a4b1b6903f48073d0
:1002b400002bf9d0084b094a1a6200bf064b5b6851
:1002c40003f00403002bf9d100bfbd465df8047ba5
:1002d400704700bf00100040001c004006090100e8
:1002e40080b400af1e4b0e229a8200bf1c4bdb6809
:1002f40003f00103002bf9d01a4b4322c3f88020ea
:10030400184b194ada6200bf164b5b6803f02003ee
:10031400002bf9d1154b164a9a6200bf134b93f880
:100324002c30dbb203f01003002bf7d10f4b01226a
:1003340083f8202000bf0d4b93f82c30dbb203f080
:100344000403002bf7d100bf084b1b6903f480732f
:10035400002bf9d000bfbd465df8047b704700bf99
:1003640000140040001c0040050101000010004082
:10037400b905011480b400af174b4ff48072c3f871
:100384009820154b4ff48072c3f88820124b4ff01d
:100394000042c3f88420104b062283f8df200e4b62
:1003a4004ff00042c3f898200b4b4ff6ff72c3f88e
:1003b400a420094b094ac3f8a820074b4ff4802214
:1003c400c3f81821044b4ff48022c3f8082100bf5e
:1003d400bd465df8047b7047008000410e00015c5f
:1003e40080b500affff74cfffff77afffff7c2ffbe
:0403f40000bf80bd09
:020000040000fa
:1003f8001b4b03b198471b4b03b19847eff310838e
:10040800b3fa83f35b09019372b6bff35f8f164ba0
:1004180000221a700199154a136843f47003136097
:10042800bff34f8fbff36f8f29b10f4b01221a70a3
:10043800bff35f8f62b600f053f900f023f80c4b5e
:1004480023f07f030b4a93600b4b98470b4b03b188
:1004580098470b4b03b1984700f0a3f8fee700bf9d
:1004680000000000000000008100002088ed00e08e
:100478000000000000ed00e0090600000000000098
:040488000000000070
:020000040000fa
:10048c001e4b1f4a9342f0b438bf002103d203f82d
:10049c00011b9342fbd11b4ad2e9000150ea010334
:1004ac004ff0000610d09468034602f10c076cb9ab
:1004bc0021b1014403f8016b9942fbd13a46d2e9d0
:1004cc00000150ea0103eed1f0bc704759b101f1c3
:1004dc000c030c38801a1a443b461c1813f8015ba9
:1004ec0025709342f9d111f0030318bf012303ebdc
:1004fc00910107eb81073a46e1e700bf00000020bd
:08050c000000002014050000ae
:020000040000fa
:100514006c00002004000000010000000000000046
:10052400500000201c00000000000000800000209b
:100534000100000000000000700000200400000022
:100544000100000065060000810000200100000099
:1005540000000000740000200400000000000000ff
:10056400000000205000000000000000780000207f
:1005740004000000000000007c00002004000000d3
:100584000100000000000000000000000000000066
:020000040000fa
:1005940080b582b000af78607b68984700bf18468a
:1005a4000837bd4680bd80b500affff719ff124b79
:1005b4001b681846fff7ecff03461a460f4b1a70e8
:1005c4000e4b1b78dbb2002b0ad10d4b4ff480721b
:1005d400c3f898200a4b4ff48022c3f81821e6e7a9
:1005e400074b4ff48072c3f89420054b4ff48022dc
:1005f400c3f81421dbe700bf700000208000002056
:040604000080004131
:020000040000fa
:100608000e4a38b5002313600d4a0e4c13600e4a8b
:100618000e4d13600e4a13600e4a13600e4a536261
:1006280013610123936000f070f800f06ef8ac429b
:1006380000d338bd54f8043b9847f8e77800002009
:100648000c00002070020000080000207402000066
:0c06580000000020040000201000002022
:020000040000fa
:1006640080b483b000af0a23fb710d4bd3f8a030e4
:10067400002b07dbfb79013bfb71fb79002bf4d1e9
:10068400012306e0fb790133fb71fb79132becd9d1
:10069400002318460c37bd465df8047b704700bf45
:1006a4000080004110b5054c227832b9044b13b1d7
:1006b4000448aff300800123237010bd50000020d4
:1006c400000000000000000008b5034b1bb1034903
:1006d4000348aff3008008bd000000005400002070
:1006e40000000000084b9a6822f001029a60db685f
:1006f40013f0010f06d1044b20225a609a6842f08d
:0c07040001029a60704700bf00600041d5
:020000040000fa
:02071000fee702
:020000040000fa
:0207120070472e
:020000040000fa
:0200000400807a
:044000003912003c35
:020000040000fa
:0200000400807a
:044004008000ec2e1e
:020000040000fa
:0200000400807a
:04400800ffffffffb8
:00000001FF
