:020000040000fa
:10000000f03f0020110d0000b7100000df110000cc
:1000100000000000000000000000000000000000e0
:100020000000000000000000000000003f0f000082
:1000300000000000000000003f0f000071100000f1
:100040003f0f00003f0f00003f0f00003f0f000078
:100050003f0f00003f0f00003f0f00003f0f000068
:100060003f0f00003f0f00003f0f00003f0f000058
:100070003f0f00003f0f00003f0f00003f0f000048
:100080003f0f00003f0f00003f0f00003f0f000038
:100090003f0f000000000000000000003f0f0000c4
:1000a0003f0f00003f0f00003f0f00003f0f000018
:0800b000000000003f0f0000fa
:020000040000fa
:1000b800f8b5c046f8bc08bc9e467047a90c0000bd
:1000c800f8b5c046f8bc08bc9e467047810c0000d5
:020000040000fa
:0800d8005c04000001000000bf
:020000040000fa
:1000e0000023f0b506001500afb005910193059906
:1000f0000b78002b00d10fe101235b420a930eab7a
:1001000000240c93802309940b940d930b5d002b1a
:1001100001d0252b2ad1002c06d02200300000f07f
:10012000d7fe059b1b190593059b1a78252a00d03d
:10013000e7e0013302930593022310219c46082730
:10014000059803782b2b1bd025d8202b1bd0232bd5
:100150001dd02a2b2ad000f041fe0b90059b1a7867
:10016000303a092a33d801330593f7e70134cde754
:100170000122099b80180393134309930590dfe73d
:100180000423099a0ee0099b03933b430be0099b70
:1001900003930b4307e02d2bead0302bd9d16246d5
:1001a000099b0393134309930130e7e72b68013060
:1001b0001a1d1b6805902a600b93002b07da099a19
:1001c0005b420392012203990b934a400992099bd7
:1001d000da0702d5022293430993059b1a782e2a47
:1001e0000ed10022581c0a9205905a782a2a28d14a
:1001f000023305932b681a1d1b682a6003930a9328
:1002000005a800f09dfe059b0700187801f010f886
:10021000692800d183e035dc632800d1d6e01bdcff
:10022000252800d1dfe0612859d0252306aa1370c4
:10023000029b0593002309930b93013b0a9302331e
:10024000b2e000f0cbfd0a90059b1a78303a092afb
:10025000d6d801330593f7e7642860d06728e4dc3b
:100260002a00390006a800f0b4fe002800d1a9e059
:10027000059b09a95a1c05921b7806aa300001f0bb
:1002800007f83de0702800d17de016dc6e2800d133
:1002900091e06f28c9d12b000022390006a800f098
:1002a00013fa002800d18de0059b06aa013309a9a5
:1002b0003000059300f0f7fb22e0752840d0782845
:1002c0004fd07328b1d1802f00d07be0059b2a68e6
:1002d00001330593131d2b601268002364e02a008c
:1002e000390006a800f075fe002800d16ae0059be1
:1002f00009a95a1c05921b7806aa300000f0c8ff15
:100300002418019b1c19a34200dc74e04f223b4bd4
:100310001a6001235b42019301982fb0f0bd2b00be
:100320000122390006a800f0cff900284ad0059b29
:1003300006aa013309a93000059300f06cf9dfe744
:100340002b000022390006a800f0bef9002839d0a1
:10035000059b06aa013309a93000059300f03cfc77
:10036000cee72b000022390006a800f0adf90028e6
:1003700028d0059b5a1c05921b7806aa09a93000b3
:1003800000f040f8bce72b000022f02106a800f0a6
:100390009bf9002816d0059b079a01330593069b0d
:1003a000134306d1164a163209a9300000f040fc6a
:1003b000a6e77823e1e7019b39001a1906a82b006c
:1003c00000f0a8fb059b013305939ae7802ff9d134
:1003d000059b013305932b681a1d1b682a6006aa2a
:1003e00013700123e0e7802fecd1059b06aa0133af
:1003f00005931070f5e7019479e6c046a800002047
:0404000010110000d7
:020000040000fa
:10040400f0b58fb00d934b680c9008938b680d007a
:100414000993cb6816000393089b0f68002b60dbdd
:1004240002239f4310233b400a9333680593736868
:100434000693099b04930a9b002b06d0059b069afe
:10044400134302d0099b023b049308233b400b93c4
:100454005a1e9341049ad31a04932b69039a5c1e7f
:1004640000231355089b0793012c10dd059b069a66
:10047400134339d1079b002b36dc089a049b9b1a43
:10048400079a9b18002b02dd02231f422cd10a9be2
:10049400002b0bd00cce134308d0039b0d9a1b19d1
:1004a400013b1a703023039a023c13550b9b002b1b
:1004b40003d02023039a013c13552b6900975a1e3d
:1004c400039b121b19190c98099b00f0aefa0c9ba4
:1004d4005b68db0503d56b68984200da18000fb03f
:1004e400f0bd012308939de70f22059b013c1340b7
:1004f40018005730092b01dc303318000d9b413ba9
:10050400192b06d820230343613b192b01d800f093
:1005140094fe039b1855079b013b0793069b1a0700
:10052400059b1b091a43069b05921b0906939be72f
:020000040000fa
:10053400f0b5060085b00f0015001c008b4265d88d
:1005440001d1824262d82100280000f01dfe39004a
:100554000090300000f018fe009b21001b1a1a00c6
:100564002800039300f004fe00900191019bbb421c
:1005740046d802d1009bb34242d8009b019c039a07
:1005840001200021f61aa74100f0f2fd039b002b85
:100594002fd0019b009adb0754081c43019b5d0884
:1005a400039b9c46bd422ed801d1b4422bd83200c5
:1005b4003b00121bab41012692185b410027b61881
:1005c4005f4101235b429c446346002bead18019be
:1005d4007941039a04000d003000390000f0bcfd9d
:1005e400039a06000f0000f0c3fd241a8d41200079
:1005f40029000a9b002b01d01e605f6005b0f0bd8e
:1006040000200021c2e7b6197f41dae7002000216b
:02061400efe70e
:020000040000fa
:10061600f0b54b6889b005930b6807009c460793b5
:10062600cb680c008e68049310685168cd0f44d0d7
:100636000b000200002150429941059b002b08db6c
:100646000222634693430793002d02d1079b5a0764
:100656002ad5731e07aa02920a22009301920b0062
:100666000200200000f0a1f9002d02d1079b5a07d5
:100676001ed501382d23002d00d1023b049a1354b8
:1006860023695a1e049b121a1918079b38000093f7
:10069600330000f0c9f97b68db0503d5636898422f
:1006a60000da180009b0f0bd1b07db0ff31ad1e71b
:1006b6001b07e5d501382023e0e7059b002bbfdab1
:0206c600c4e787
:020000040000fa
:1006c80030b5882933d015dc812941d003dc802955
:1006d8003ed0002030bd822911d08429f9d11c6870
:1006e80002cc1c60002a1ed009b20160c917416003
:1006f8000120efe7a02923d00adc9029e9d10724bb
:1007080019680731a14330c9196004604560efe7f3
:10071800c02901d0f029dcd11a68111d19601368ad
:100728000360002312e089b201604260e0e71c68c0
:1007380002cc1c60002a01d049b2d6e7c9b2f3e75f
:100748001a68111d196013680360db174360cfe74f
:1007580019680c1d1c600b680360002ae5d0f4e7db
:020000040000fa
:10076800700000201c00000000000000ac00002009
:1007780002000000000000008c0000200c000000b7
:1007880000000000a000002004000000000000009d
:100798000000002050000000000000005000002071
:1007a800200000000100000001000000030000001c
:1007b8000000000000000000000000000000000031
:1007c80000000000980000209800002008000000a9
:1007d80000000000a4000020040000000000000049
:1007e800a800002004000000000000000000000035
:1007f8000000000022222222222222222222222259
:020000040000fa
:10080800f0b5c6461f4a204b00b50021934203d2db
:10081800197001339342fbd10b231c4a9c46083bb9
:1008280098461368546819000026214311d0170010
:1008380091680c3700290fd11a19002c03d01e70ab
:1008480001339342fbd13a001368546819002143dd
:10085800edd104bc9046f0bd6146c91a1d19511866
:10086800002c05d05a1c505c187013009542f9d121
:10087800434623405a1e9341a4081c19a4003f195b
:100888003a00e1e7000000200000002068070000af
:020000040000fa
:100898001b4b00229a619a8c80218a439a841a0001
:1008a8001023d1680b42fcd0164b1b689b0e3f2bc4
:1008b80023d09b02802292001343114a9362102393
:1008c800d1680b42fcd00e4b02229a841a001023e6
:1008d800d1680b42fcd00c4b0c4a5a601a00537872
:1008e8005bb2002bfbdb084b094a5a80094b0a4aca
:1008f8001a62034b00221a627047203bd9e7c046b0
:100908000008004024608000000c0040000701003f
:0c091800194000000004004080000100b5
:020000040000fa
:10092400002934d00123002210b488422cd301249e
:100934002407a14204d2814202d209011b01f8e733
:10094400e400a14204d2814202d249005b00f8e7ec
:10095400884201d3401a1a434c08a04202d3001b18
:100964005c0822438c08a04202d3001b9c0822434b
:10097400cc08a04202d3001bdc082243002803d089
:100984001b0901d00909e3e7101c10bc704701b52d
:10099400002000f07dfc02bd0029f8d003b5fff76c
:0c09a400c1ff0ebc4243891a1847c04630
:020000040000fa
:1009b000f0b5050085b019000c9b100001931a6872
:1009c0002b696c68013bef681d00002c00da0124e4
:1009d0000026fe540a9e0123361b0296022616406c
:1009e0000b9ad2170392002d04dc002b17d028009d
:1009f00005b0f0bd02000a4307d1002c05dc029ac5
:100a00001219002af1dd002eefd00b9a039b00f0a3
:100a100005fa013d130030327a55013ce3e710231b
:0e0a2000019a12689a431300019a1360dfe7ef
:020000040000fa
:100a2e00f0b51e00012389b014000e9a07001a407b
:100a3e000291019220d1b4421eda351b03952a0091
:100a4e00102d00d91022202104a800f0d2fb0f2d6a
:100a5e001bdc0f22039b04a913401a00380000f080
:100a6e0030fa019b002b04d122000299380000f0cd
:100a7e0028fa300009b0f0bd22000299380000f0cb
:100a8e0020fab442d9db2600f3e7102204a938007d
:080a9e0000f017fa103ddae741
:020000040000fa
:100aa600f0b50b680c008f68cd68496887b0060002
:100ab6000593002902db02218b43059305a95368a0
:100ac600126802910821009701912000fff76dff3f
:100ad600059bdb0602d5302301382b54059b1b07eb
:100ae60002d5202301382b54236929185a1e059b49
:100af600121a009330003b00fff796ff7368db0580
:0e0b060003d56368984200da180007b0f0bd0e
:020000040000fa
:100b140010b584291fd007dc812915d0822922d061
:100b2400802911d0002010bd90291cd008dc882910
:100b3400f8d119680c1d1c600b6803601a7010e072
:100b4400a02901d0c029edd119680c1d1c600b68c7
:100b540003601a6005e019680c1d1c600b680360d3
:100b64001a800120dfe719680c1d1c600b68036004
:080b74001a60d2175a60f4e781
:020000040000fa
:100b7c0000230e4a10b513600d4a13600d4a136022
:100b8c000d4a13600d4a13600d4a53621361013311
:100b9c00936000f03ffb00f068fb0a4c0a4b9c4250
:100bac0000d310bd08cc9847f8e7c046a40000203d
:100bbc000c00002008000020000000200400002091
:0c0bcc0010000020c4000000c800000061
:020000040000fa
:100bd800f0b50b680c008f68cd68496887b00600cf
:100be8000593002902db02218b43059305a953686d
:100bf800126802910a21009701912000fff7d4fea4
:100c0800236929185a1e059b121a009330003b00cd
:100c1800fff709ff7368db0503d56368984200dabc
:060c2800180007b0f0bd4a
:020000040000fa
:020c2e0070470d
:020000040000fa
:100c3000f0b50f0087b0039015001049072204a8f3
:100c40001c0000f0c3fabb687e6802933f68002d69
:100c500000d104ad002c03d1280000f0d9fa040023
:100c6000002e02dbb44200d934000097029b220020
:100c700029000398fff7dbfe07b0f0bd88120000e3
:020000040000fa
:100c800010b5064c2378002b07d1054b002b02d062
:100c9000044800e000bf0123237010bd7000002055
:100ca0000000000000000000044b10b5002b03d032
:100cb0000349044800e000bf10bdc046000000002a
:080cc000740000200000000098
:020000040000fa
:100cc800f8b5002000f096f900f068fa00210b480a
:100cd80000f0befa00f080fa0021094e9c2580271a
:100ce800ff0077514c1ce4b2064800f0e1f9fa2005
:100cf800400000f04ff82100f3e7c046d91000008b
:080d080000440041f01100005d
:020000040000fa
:100d100010b50a4b98470a4b9847fff775fd094bea
:100d2000ff229343084a9360084b9847084b984723
:100d3000084b9847fff7c8fffee7c0462f0c00009e
:100d40002f0c00000000000000ed00e07d0b000013
:080d50002f0c00002f0c000025
:020000040000fa
:100d580070b5002818d0002918d000250c4a0124a5
:100d6800072605e06b00c35a13850135a94209d04f
:100d7800137e2342fcd053683340012bf2d0435ded
:100d88001385f2e7012070bd0020fce70120fae797
:040d9800001c0042f9
:020000040000fa
:100d9c0070b50d4b5e681b68db0714d50b4b5843c5
:100dac00094b9b6800280ed00021074c013605e04a
:100dbc00b51aeb18c9181300884204d9a2689a42d4
:100dcc00f6d89b1af6e770bd10e000e080bb00007f
:020000040000fa
:100ddc00030010b51a78202a0dd011000939042906
:100dec0009d900212b2a02d02d2a01d1013101333e
:100dfc0000200a2404e00133ece760430133801a3d
:100e0c001a78303a092af8d9002900d1404210bd8d
:020000040000fa
:100e1c00002b11d1002a0fd1002900d1002802d0bb
:100e2c000021c943081c07b4024802a140180290d3
:100e3c0003bdc0465504000003b4684601b50298d2
:100e4c00fff772fb019b9e4602b00cbc7047c0467c
:100e5c001c2101231b04984201d3000c10391b0ade
:100e6c00984201d3000a08391b09984201d30009a2
:100e7c00043902a2105c40187047c04604030202f9
:0c0e8c0001010101000000000000000056
:020000040000fa
:100e98000a4b0b4a1a600b4a9a81c02292025a6086
:100ea8001a00d369002bfcd1044a136802210b43b2
:100eb8001360d369002bfcd17047c046001c004268
:080ec800040110402bf6ffffae
:020000040000fa
:100ed000436870b50400d80510d52569954200d93e
:100ee00015002a00606900f071f9226963695b19d5
:100ef000551b0022636125611a7070bddb06fcd4ae
:080f0000200000f0aff9f8e752
:020000040000fa
:100f080013b50b006a46d41d5a68c1b22170d205c8
:100f180005d55a69c0b2541c5c61117016bd012216
:100f28002100180000f09af9002801d02078f5e790
:060f380001204042f2e737
:020000040000fa
:020f3e00fee7cc
:020000040000fa
:100f4000f0b5050000200a4c4200165d002e02d1cb
:100f5000a2185078f0bd296801300f78c0b2b742ae
:100f600003d1a2180131507829600a28ecd9f1e7a1
:040f7000101100005c
:020000040000fa
:100f74000a4b012256215a5401315a543a32243927
:100f840099548022d2004d315a5010315a500022c7
:100f94003a315a5415395a547047c04600440041f6
:020000040000fa
:100fa40070b5140016000a004e430d00511e8a410c
:100fb4005242144001003200180000f051f98642f8
:0e0fc40003d02900fff7acfc0400200070bd34
:020000040000fa
:100fd200002380290fdb812901dd83290bd1072121
:100fe200136807338b431900083111601a685b6874
:0a0ff20002604360012318007047fd
:020000040000fa
:100ffc0010b5084b06225a60fff7b6fffff746fc08
:10100c0000f01ef900f01cf8fff740ff00f029f982
:08101c0010bdc0460040004178
:020000040000fa
:1010240010b5084c2368196800f032f80123002831
:1010340005db23680a20196800f020f9c30f584221
:0810440010bdc0466c00002045
:020000040000fa
:10104c00054a002313609360044951600621116026
:10105c00034a93601360704710e000e07fbb000010
:04106c008c000020d4
:020000040000fa
:1010700010b5064b1b68064b9a6801329a601b68d4
:10108000002b02d0024a5068984710bd10e000e0e3
:041090008c000020b0
:020000040000fa
:1010940070b50e00050000f0b9f83300040002003a
:1010a40001212800fff77cff001b431e98414042aa
:0210b40070bd0d
:020000040000fa
:0210b600fee753
:020000040000fa
:1010b8000fb407b5054b04aa1b6802ca1868019249
:1010c80000f03cf803b008bc04b018476c000020de
:020000040000fa
:1010d800054b1b889bb2002b04d0034a1388013ba5
:0c10e8009bb213807047c046ac00002093
:020000040000fa
:1010f40070b50d001400012801d0200070bd21003e
:0c1104002800fff727fe0028f9d0f6e7ce
:020000040000fa
:1011100068076c094c836a9074a07ac00080688864
:1011200000846c820081286e696c29000a53414d4d
:1011300044323120437572696f73697479204e614e
:041140006e6f0a00c4
:020000040000fa
:1011440013b50400019201aafef7c8ff6368db0629
:0811540001d50120404216bd47
:020000040000fa
:10115c00d0400b1cd1409c46203ad34018435242fd
:10116c0063469340184370479140031c90409c4643
:10117c00203a9340194352426346d3401943704777
:10118c0010b5002903d1fff763fe203002e0081ce4
:08119c00fff75efe10bdc04626
:020000040000fa
:1011a400034b00229a601a6801210a431a607047af
:0411b40010e000e067
:020000040000fa
:1011b80010b500f05df8024b1860586010bdc046cd
:0411c800980000206b
:020000040000fa
:1011cc00002310b59a4200d110bdcc5cc45401333d
:0211dc00f8e732
:020000040000fa
:0211de00fee72a
:020000040000fa
:1011e00010b50248fff71eff10bdc0462c110000cd
:020000040000fa
:1011f00048656c6c6f20253033642120200d000081
:020000040000fa
:1012000003001218934200d1704719700133f9e7b7
:020000040000fa
:1012100003001a78002a01d1181a70470133f8e741
:020000040000fa
:1012200010b5fff7c9ff00f037f800f035f810bd32
:020000040000fa
:0e1230000300413b192b01d8202318437047bf
:020000040000fa
:0e123e000300613b192b01d85f231840704755
:020000040000fa
:0c124c00014b82225a60704700400041b4
:020000040000fa
:0c125800014b1860596070478c000020aa
:020000040000fa
:0a12640010b50068fff744ff10bd4d
:020000040000fa
:08126e00bff35f8f62b6704709
:020000040000fa
:021276007047bf
:020000040000fa
:081278000048704750000020ff
:020000040000fa
:0812800010b5fff741fe10bd9f
:020000040000fa
:07128800286e756c6c290053
:020000040000fa
:041290000020704783
:020000040000fa
:041294007047c04699
:020000040000fa
:0212980070479d
:020000040000fa
:0200000400807a
:0440000077c700d8a6
:020000040000fa
:0200000400807a
:044004005c00ffff5e
:00000001FF
