:020000040000fa
:10000000f0ff03201106000035080000350800004d
:100010003508000035080000350800000000000029
:100020000000000000000000000000003508000093
:100030003508000000000000350800003508000009
:1000400035080000350800003508000035080000bc
:1000500035080000350800003508000035080000ac
:10006000350800003508000035080000350800009c
:10007000350800003508000035080000350800008c
:10008000350800003508000035080000350800007c
:10009000350800003508000035080000350800006c
:1000a000350800003508000035080000350800005c
:1000b000350800003508000035080000350800004c
:1000c000350800003508000035080000350800003c
:1000d000350800003508000035080000350800002c
:1000e0003508000035080000000000000000000096
:1000f0000000000035080000350800003508000049
:1001000035080000350800003508000035080000fb
:1001100035080000350800003508000035080000eb
:1001200035080000350800003508000035080000db
:1001300035080000350800003508000035080000cb
:1001400035080000350800003508000035080000bb
:1001500035080000350800003508000035080000ab
:10016000350800003508000035080000350800009b
:10017000350800003508000035080000350800008b
:10018000350800003508000035080000350800007b
:10019000350800003508000035080000350800006b
:1001a000350800003508000035080000350800005b
:1001b000350800003508000035080000350800004b
:1001c000350800003508000035080000350800003b
:1001d000350800003508000035080000350800002b
:1001e000350800003508000035080000350800001b
:1001f0003508000035080000a105000035080000a2
:1002000035080000350800003508000035080000fa
:1002100035080000350800003508000035080000ea
:1002200035080000350800003508000035080000da
:1002300035080000350800003508000035080000ca
:1002400035080000350800003508000035080000ba
:1002500035080000350800003508000035080000aa
:04026000350800005d
:020000040000fa
:10026400f8b500bff8bc08bc9e46704719080000ea
:10027400f8b500bff8bc08bc9e467047f5070000ff
:020000040000fa
:1002840080b483b000af0346fb80b7f90630002b7f
:100294000bdbfb8803f01f020749b7f906305b0943
:1002a400012000fa02f241f8232000bf0c37bd46ba
:1002b4005df8047b704700bf00e100e080b400af4c
:1002c400134b1b7fdbb2124a43f00203dbb21377fa
:1002d40000bf0f4b93f82c30dbb203f00203002b6a
:1002e400f7d100bf0a4b1b6903f48073002bf9d0cc
:1002f400084b094a1a6200bf064b5b6803f004030b
:10030400002bf9d100bfbd465df8047b704700bfe8
:1003140000100040001c00400609010080b400af3a
:100324001e4b0e229a8200bf1c4bdb6803f00103b4
:10033400002bf9d01a4b4322c3f88020184b194ada
:10034400da6200bf164b5b6803f02003002bf9d17f
:10035400154b164a9a6200bf134b93f82c30dbb24c
:1003640003f01003002bf7d10f4b012283f8202058
:1003740000bf0d4b93f82c30dbb203f00403002bc9
:10038400f7d100bf084b1b6903f48073002bf9d02d
:1003940000bfbd465df8047b704700bf00140040f9
:1003a400001c00400501010000100040b9050114c3
:1003b40080b400af1a4b4ff48072c3f89820184be6
:1003c4004ff48072c3f88820154b4ff48042c3f871
:1003d4008820134b4ff00042c3f88420104b0622b0
:1003e40083f8df200e4b4ff00042c3f898200c4beb
:1003f4004ff6ff72c3f8a420094b0a4ac3f8a82099
:10040400074b4ff48022c3f81821054b4ff4802288
:10041400c3f8082100bfbd465df8047b704700bfe8
:10042400008000410e00015c80b400af184b9b6952
:10043400174a43f480439361164b4022c3f8e820e3
:10044400154b4ff4c0621a60134b01221a73124bfe
:1004540040f253729a8300bf0f4b1b6903f04003b1
:10046400002bf9d10c4b01225a720b4b1b680a4a20
:1004740043f00203136000bf074b1b6903f0020340
:10048400002bf9d100bfbd465df8047b704700bf67
:1004940000080040001c004000c0014180b500afce
:1004a400fff70cfffff73afffff782fffff7bcfff0
:1004b40000bf80bd80b500af6e20fff7e1fe00bf36
:1004c40080bd00bf80b483b000af78603960064a55
:1004d4007b681360044a3b68536000bf0c37bd4619
:1004e4005df8047b704700bf7000002080b400af4b
:1004f400074b4ff48072c3f89c20054b4ff48022c5
:10050400c3f81c2100bfbd465df8047b704700bfe3
:100514000080004180b582b000af786039607b68ac
:1005240003f01003002b2ed0194bd3f8a030002b6e
:100534001cdb184b1b889bb2013b9bb2154a194626
:100544001180002b1fd1134b32221a80124b1b78bf
:10055400dbb20133dbb2104a19461170012b12d9f8
:100564000d4b00221a70fff7c1ff0ce0094b1b88ea
:100574009bb201339bb2074a19461180632b02d9ff
:10058400044b32221a8000bf0837bd4680bd00bf2d
:10059400008000416c0000206e00002080b582b015
:1005a40000af0f4b5b7adbb2002b14d00c4b9b7a61
:1005b400dbb27b600a4b33229a727b68002b0ad031
:1005c400084b1b68002b06d0064b1b68054a526873
:1005d40011467868984700bf0837bd4680bd00bf04
:1005e40000c001417000002080b500affff756ff46
:1005f400fff760ff034b32221a8000210248fff705
:0c06040061fffee76c00002019050000fb
:020000040000fa
:100610001a4b03b198471a4b03b19847eff3108375
:10062000b3fa83f35b09019372b6bff35f8f154b87
:1006300000221a700199144a136843f4700313607e
:10064000bff34f8fbff36f8f29b10e4b01221a708a
:10065000bff35f8f62b600f023f80c4b23f07f03eb
:100660000b4a93600b4b98470b4b03b198470b4bce
:1006700003b19847fff7bafffee700bf0000000094
:10068000000000008800002088ed00e0000000006d
:1006900000ed00e0990700000000000000000000ed
:020000040000fa
:1006a0001e4b1f4a9342f0b438bf002103d203f817
:1006b000011b9342fbd11b4ad2e9000150ea01031e
:1006c0004ff0000610d09468034602f10c076cb995
:1006d00021b1014403f8016b9942fbd13a46d2e9ba
:1006e000000150ea0103eed1f0bc704759b101f1ad
:1006f0000c030c38801a1a443b461c1813f8015b93
:1007000025709342f9d111f0030318bf012303ebc5
:10071000910107eb81073a46e1e700bf00000020a6
:08072000000000202807000082
:020000040000fa
:100728007800002004000000010000000000000024
:10073800500000201c000000000000006c00002099
:100748000c000000000000008800002001000000ec
:10075800000000007c0000200400000000000000f1
:100768000000002050000000000000008000002071
:1007780004000000000000008400002004000000c5
:100788000100000000000000000000000000000060
:020000040000fa
:100798000e4a38b5002313600d4a0e4c13600e4afa
:1007a8000e4d13600e4a13600e4a13600e4a5362d0
:1007b80013610123936000f03af800f038f8ac4276
:1007c80000d338bd54f8043b9847f8e78000002070
:1007d8000c000020700200000800002074020000d5
:0c07e80000000020040000201000002091
:020000040000fa
:1007f40010b5054c227832b9044b13b10448aff359
:1008040000800123237010bd500000200000000070
:100814000000000008b5034b1bb103490348aff3c4
:10082400008008bd0000000054000020000000000b
:020000040000fa
:02083400fee7dd
:020000040000fa
:02083600704709
:020000040000fa
:0200000400807a
:044000003912003c35
:020000040000fa
:0200000400807a
:044004008000ec2e1e
:020000040000fa
:0200000400807a
:04400800ffffffffb8
:00000001FF
